4532123456789012JOHN DOE            00050000000387+4
4532123456789013JANE SMITH          00100000001550+0
4532123456789014BOB JOHNSON         00025000000015+0
4532123456789015ALICE WILLIAMS      00075000005022+0
4532123456789016CHARLIE BROWN       00030000000025-0
4532123456789017DIANA PRINCE        00080000000000+0
