4532123456789012JOHN DOE            00050000000012345-A
4532123456789013JANE SMITH          00100000000050000+A
4532123456789014BOB JOHNSON         00025000000000100-B
4532123456789015ALICE WILLIAMS      00075000000020000+A
4532123456789016CHARLIE BROWN       00030000000025000-A
4532123456789017DIANA PRINCE        00080000000000000+A
