4532123456789012P000012550GROCERY STORE      20251210
4532123456789012R000005000RETURN             20251210
4532123456789013P000250000ELECTRONICS        20251210
4532123456789013C000100000PAYMENT            20251210
4532123456789014P000001000GAS STATION        20251210
4532123456789015F000000250LATE FEE           20251210
4532123456789015P000500000MAJOR PURCHASE     20251210
4532123456789016C000005000PAYMENT            20251210
4532123456789999P000001000INVALID CARD       20251210
4532123456789014P000000500BLOCKED TEST       20251210
4532123456789015P000000000ZERO AMOUNT        20251210
4532123456789012P000030000OVER LIMIT TEST    20251210
