4532123456789012P000012550GROCERY STORE      20251210
4532123456789012R000005000RETURN             20251210
4532123456789013P000250000ELECTRONICS        20251210
4532123456789013C000100000PAYMENT            20251210
4532123456789014P000001000GAS STATION        20251210
4532123456789015F000000250LATE FEE           20251210
4532123456789015P000500000MAJOR PURCHASE     20251210
4532123456789016P000001000COFFEE SHOP        20251210
4532123456789017P000015000ONLINE SHOP        20251210
4532123456789012P000002000RESTAURANT         20251210
4532123456789013P000600000FURNITURE          20251210
4532123456789015R000001000REFUND             20251210
4532123456789016C000005000PAYMENT            20251210
4532123456789017F000000150ANNUAL FEE         20251210
4532123456789999P000001000TEST TXN           20251210
4532123456789014P000000500BLOCKED TEST       20251210
4532123456789015P000000000ZERO AMOUNT        20251210
4532123456789012P000030000OVER LIMIT TEST    20251210
